:1004B500EF1FAC0670011E4C600A7D027CEFDCFE6E
:0404C500DDFC80ECEE
:0104C9002210
:05000300E4AF49F549DE
:0100080022D5
:10000E00E4F54A75A0FFC2A02090137F14FE1204DF
:10001E00B53090FD7F147E001204B5754A0720910D
:10002E00147F147E001204B53091FD7F147E0012F1
:10003E0004B5754A042092147F147E001204B53064
:10004E0092FD7F147E001204B5754A012093147F31
:10005E00147E001204B53093FD7F147E001204B599
:10006E00754A1075A0FFC2A12090147F147E001255
:10007E0004B53090FD7F147E001204B5754A082039
:10008E0091147F147E001204B53091FD7F147E0012
:10009E001204B5754A052092147F147E001204B521
:1000AE003092FD7F147E001204B5754A022093141F
:1000BE007F147E001204B53093FD7F147E0012046F
:1000CE00B5754A0F75A0FFC2A22090147F147E0052
:1000DE001204B53090FD7F147E001204B5754A09E6
:1000EE002091147F147E001204B53091FD7F147E92
:1000FE00001204B5754A062092147F147E00120475
:10010E00B53092FD7F147E001204B5754A0320931C
:10011E00147F147E001204B53093FD7F147E0012FE
:10012E0004B5754A0E75A0FFC2A32090147F147EED
:10013E00001204B53090FD7F147E001204B5754A8E
:10014E000A2091147F147E001204B53091FD7F14A5
:10015E007E001204B5754A0B2092147F147E001295
:10016E0004B53092FD7F147E001204B5754A0C2042
:10017E0093147F147E001204B53093FD7F147E001D
:08018E001204B5754A0DAF4AD9
:010196002246
:1004CA0085474812000E8F47E5486007E5477003E5
:0304DA0085484909
:0104DD0022FC
:1003FE0001370103330000000F380A00001E000011
:10040E000001000A0100140100013605012E000151
:06041E002F000230000077
:10029D001204DE7590FFE53760FCE53575F00A84D4
:1002AD00FD7C007F011204F9E53575F00A84E5F057
:1002BD00FD7C007F021204F9E53475F00A84FD7CA3
:1002CD00007F031204F9E53475F00A84E5F0FD7C36
:1002DD00007F041204F9E53375F00A84FD7C007F7C
:1002ED00051204F9E53375F00A84E5F0FD7C007F15
:0602FD00061204F980A0C6
:10047300EFC3940F40037F002274382FF8E6B5339F
:100483001374392FF8E6B5340B743A2FF8E6B53503
:07049300037F01227F00221C
:1003B600E5376043AF2D120473EF600DE532700927
:1003C6008536327403252DF52DE53260061532C2C9
:1003D600948002D2940533E533C3943C4019E4F586
:1003E600330534E534943C400EE4F5340535E53503
:0703F60094184003E4F53503
:0103FD0022DD
:03000B00020223CB
:10022300C0E0C0F0C083C082C0D075D000C000C0A1
:0D02330001C002C003C004C005C006C00722
:10024000758CFC758A66052EE52EC39414400675E0
:100250002E001204CA052FE52FC39402400AE53789
:100260006006752F0012049A0531E53170020530E1
:10027000C394E8E5309403400975300075310012ED
:0202800003B6C3
:10028200D007D006D005D004D003D002D001D000D0
:0B029200D0D0D082D083D0F0D0E0327A
:1004DE00438901758CFC758A66D28CD2A9D2AF2263
:100424000C203F065B4F666D7D077F6F00400C1408
:0C043400BF86DBCFE6EDFD87FFEF80C048
:0904F900AE05740B2FF8A60622D3
:0B030300740B2509F8E6FD7C00AF0933
:10030E00E4F580F52CEF24FE6015146017146019C7
:10031E0014601E1460202405701F75A0FE801A75CF
:10032E00A0FD800875A0FB801075A0F7752C0180CC
:10033E000875A0EF800375A0DFE52C6004741480AF
:10034E000274202DF8E6F5807F017E001204B5E4DC
:03035E00F5802205
:10049A00740B2508F8E6FD7C00AF0812030E050868
:0A04AA00E508C3940740037508013C
:0104B4002225
:0B04EE00740B2FF8E6FD7C0002030EEB
:10044100E5096F701DE50AC394645003120303E5C7
:100451000A2401FFE433FE7C007DC81203618D0A8A
:1004610080031203030509E509C3940740037509D5
:010471000189
:010472002267
:0300000002019763
:0C019700787FE4F6D8FD75814A0201DE95
:10036100BC000BBE0029EF8DF084FFADF022E4CC80
:10037100F875F008EF2FFFEE33FEEC33FCEE9DEC49
:10038100984005FCEE9DFE0FD5F0E9E4CEFD22ED8F
:10039100F8F5F0EE8420D21CFEADF075F008EF2FD9
:1003A100FFED33FD4007985006D5F0F222C398FDCA
:0503B1000FD5F0EA2267
:1001A30002029DE493A3F8E493A34003F68001F2D3
:1001B30008DFF48029E493A3F85407240CC8C3335D
:1001C300C4540F4420C8834004F456800146F6DF2C
:1001D300E4800B01020408102040809003FEE47EBB
:1001E300019360BCA3FF543F30E509541FFEE49321
:1001F300A360010ECF54C025E060A840B8E493A3E8
:10020300FAE493A3F8E493A3C8C582C8CAC583CA12
:10021300F0A3C8C582C8CAC583CADFE9DEE780BECA
:0104400000BB
:00000001FF
