:10013800EF1FAC0670011E4C600A7D027CEFDCFEEE
:04014800DDFC80EC6E
:01014C002290
:0C017D00120160AF15AE141200EF80F705
:03000B0002014DA2
:10014D00C0E0758CDC758A000515E5157002051487
:03015D00D0E032BD
:0C0170000A083F065B4F666D7D077F6F3D
:0400EF008E168F17C3
:1000F3007518FEE51864BF603BAE16AF177C007D34
:100103000A12009A8D19AE16AF177C007D0A1200F1
:100113009A8E168F178518A074082519F8E6F580AE
:100123007F017E00120138E4F580E51825E04401E3
:04013300F51880BF7C
:0101370022A5
:10016000438901758CDCE4F58AD28CD2A9D2AF2206
:0300000002000EED
:0C000E00787FE4F6D8FD758119020055DA
:10009A00BC000BBE0029EF8DF084FFADF022E4CC4A
:1000AA00F875F008EF2FFFEE33FEEC33FCEE9DEC13
:1000BA00984005FCEE9DFE0FD5F0E9E4CEFD22ED59
:1000CA00F8F5F0EE8420D21CFEADF075F008EF2FA3
:1000DA00FFED33FD4007985006D5F0F222C398FD94
:0500EA000FD5F0EA2231
:10001A0002017DE493A3F8E493A34003F68001F27E
:10002A0008DFF48029E493A3F85407240CC8C333E7
:10003A00C4540F4420C8834004F456800146F6DFB6
:10004A00E4800B0102040810204080900170E47ED5
:10005A00019360BCA3FF543F30E509541FFEE493AB
:10006A00A360010ECF54C025E060A840B8E493A372
:10007A00FAE493A3F8E493A3C8C582C8CAC583CA9D
:10008A00F0A3C8C582C8CAC583CADFE9DEE780BE55
:01017C000082
:00000001FF
