:10017D00EF1FAC0670011E4C600A7D027CEFDCFEA9
:04018D00DDFC80EC29
:01019100224B
:06019200011E00011F0028
:100124001201BB7590FF1200038F21E52160F77463
:1001340001A807088002C333D8FCF5B0E521FD7C93
:08014400007F011201D680DEEC
:03000B0002009A56
:10009A00C0E0C0F0C083C082C0D075D000C000C02C
:0D00AA0001C002C003C004C005C006C007AD
:1000B700758CFC758A66051EE51EC394144006758B
:1000C7001E001201A7051FE51FC394024006751FF6
:0400D7000012014CC6
:1000DB00D007D006D005D004D003D002D001D00079
:0B00EB00D0D0D082D083D0F0D0E03223
:0E0198000C123F065B4F666D7D077F6F0040C7
:0901D600AE0574092FF8A60622FB
:1000F600E4F580EF24FE600C14600E2402700D758A
:10010600A0FE800875A0FD800375A0FB74122DF873
:0E011600E6F5807F017E0012017DE4F5802277
:10014C0074092508F8E6FD7C00AF081200F60508D6
:0A015C00E508C39404400375080190
:010166002276
:0B01CB0074092FF8E6FD7C000200F62E
:1001BB00438901758CFC758A66D28CD2A9D2AF2289
:05000300E4AF24F52428
:0100080022D5
:10016700E4FF2090010F2091027F022092027F037B
:050177002093027F044B
:01017C002260
:1001A7008522231201678F22E5236007E52270036A
:0301B70085232479
:0101BA002222
:0300000002000EED
:0C000E00787FE4F6D8FD758124020055CF
:10001A00020124E493A3F8E493A34003F68001F2D7
:10002A0008DFF48029E493A3F85407240CC8C333E7
:10003A00C4540F4420C8834004F456800146F6DFB6
:10004A00E4800B0102040810204080900192E47EB3
:10005A00019360BCA3FF543F30E509541FFEE493AB
:10006A00A360010ECF54C025E060A840B8E493A372
:10007A00FAE493A3F8E493A3C8C582C8CAC583CA9D
:10008A00F0A3C8C582C8CAC583CADFE9DEE780BE55
:0101A6000058
:00000001FF
