:10058400EF1FAC0670011E4C600A7D027CEFDCFE9E
:04059400DDFC80EC1E
:010598002240
:05000300E4AF45F545E6
:0100080022D5
:10000E00E4F54675900F75A0FFC2A02090137F14E3
:10001E00FE1205843090FD7F147E00120584754615
:10002E00072091147F147E001205843091FD7F14F9
:10003E007E001205847546042092147F147E0012F1
:10004E0005843092FD7F147E0012058475460120D2
:10005E0093147F147E001205843093FD7F147E006E
:10006E0012058475461075A0FFC2A12090147F144E
:10007E007E001205843090FD7F147E00120584757B
:10008E0046082091147F147E001205843091FD7F66
:10009E00147E001205847546052092147F147E008E
:1000AE001205843092FD7F147E001205847546027F
:1000BE002093147F147E001205843093FD7F147EEE
:1000CE000012058475460F75A0FFC2A22090147F02
:1000DE00147E001205843090FD7F147E001205847C
:1000EE007546092091147F147E001205843091FD0F
:1000FE007F147E001205847546062092147F147EAE
:10010E00001205843092FD7F147E00120584754620
:10011E00032093147F147E001205843093FD7F1408
:10012E007E0012058475460E75A0FFC2A3209014A2
:10013E007F147E001205843090FD7F147E00120520
:10014E008475460A2091147F147E00120584309126
:10015E00FD7F147E0012058475460B2092147F14C9
:10016E007E001205843092FD7F147E001205847588
:10017E00460C2093147F147E001205843093FD7F6D
:0B018E00147E0012058475460DAF467C
:010199002243
:1005990085434412000E8F43E5446007E543700329
:0305A90085444541
:0105AC00222C
:0D053F00013901012D00012E00022F0000E6
:10019A001205AD1200038F40E540640A7024E53968
:1001AA0070047F0180027F008F39E4F542743225A2
:1001BA0042F8E6FF743A2542F8A6070542E542B43A
:1001CA0006EBE5397016E540B40B11E5382401FF5A
:1001DA00E433FE7C007D061204B88D38E5397022BE
:1001EA00E540C394014007E540D394094005E54042
:1001FA00B4100FE540B41003E4F540743A2538F81A
:10020A00A640E539600302029DE540640C600302E2
:10021A00029DF541E5417010743A2541F8E6FFC3A5
:10022A009403743240548035E54164017016E53A0E
:10023A00B4020F743A2541F8E6C394044033743289
:10024A00801B802DE54164026005E541B404177402
:10025A003A2541F8E6FFC39406743240072541F86F
:10026A00E4F6801B8014E54164036005E541B405AA
:10027A000E743A2541F8E6FF74322541F8A60705BF
:10028A0041E5416406708DE53970047F0180027F83
:10029A00008F39E5397011E540B40D0CE539700469
:1002AA007F0180027F008F39E539601F754101E5C2
:1002BA0041D39406400302019D74312541F8E6FDBD
:1002CA007C00AF411205C8054180E4E53804FF749B
:0E02DA003A2538F8E6FD7C001205C802019DA9
:10046000E53960530537E537C3940A404A0536E459
:10047000F537E5369406403F0535E4F536E5359425
:100480000A40340534E4F535E53494064029053353
:10049000E4F534E5329402500DE533C3940A400686
:1004A0000532E4F53322E532B4020CE533C394049B
:0804B0004005E4F532F53322AA
:03000B000202E806
:1002E800C0E0C0F0C083C082C0D075D000C000C0DC
:0D02F80001C002C003C004C005C006C0075D
:10030500758CFC758A66052DE52DC394144006751C
:100315002D00120599052EE52EC39402400AE539F4
:100325006006752E00120569E52EC39402400DE5A1
:10033500397009F52EE53804FF12050D0530E53055
:100345007002052FC394E8E52F94034009752F002B
:0603550075300012046087
:10035B00D007D006D005D004D003D002D001D000F6
:0B036B00D0D0D082D083D0F0D0E032A0
:10054C000C203F065B4F666D7D077F6F00400C14DF
:0C055C00BF86DBCFE6EDFD87FFEF80C01F
:0905C800AE05740B2FF8A6062203
:0B040200740B2509F8E6FD7C00AF0933
:10040D00E4F580F52CEF24FE6015146017146019C7
:10041D0014601E1460202405701F75A0FE801A75CF
:10042D00A0FD800875A0FB801075A0F7752C0180CC
:10043D000875A0EF800375A0DFE52C6004741480AF
:10044D000274202DF8E6F5807F017E00120584E40C
:03045D00F5802205
:10056900740B2508F8E6FD7C00AF0812040D050898
:0A057900E508C3940740037508016C
:010583002255
:0B05BD00740B2FF8E6FD7C0002040D1B
:10050D00E5096F701DE50AC394645003120402E5FA
:10051D000A2401FFE433FE7C007DC81204B88D0A65
:10052D0080031204020509E509C394074003750908
:01053D0001BC
:01053E00229A
:1005AD00438901758CFC758A66D28CD2A9D2AF2293
:0300000002037682
:0C037600787FE4F6D8FD7581460203BDD7
:1004B800BC000BBE0029EF8DF084FFADF022E4CC28
:1004C800F875F008EF2FFFEE33FEEC33FCEE9DECF1
:1004D800984005FCEE9DFE0FD5F0E9E4CEFD22ED37
:1004E800F8F5F0EE8420D21CFEADF075F008EF2F81
:1004F800FFED33FD4007985006D5F0F222C398FD72
:050508000FD5F0EA220E
:1003820002019AE493A3F8E493A34003F68001F2F6
:1003920008DFF48029E493A3F85407240CC8C3337C
:1003A200C4540F4420C8834004F456800146F6DF4B
:1003B200E4800B010204081020408090053FE47E97
:1003C200019360BCA3FF543F30E509541FFEE49340
:1003D200A360010ECF54C025E060A840B8E493A307
:1003E200FAE493A3F8E493A3C8C582C8CAC583CA32
:1003F200F0A3C8C582C8CAC583CADFE9DEE780BEEA
:010568000092
:00000001FF
