:10030C00EF1FAC0670011E4C600A7D027CEFDCFE18
:04031C00DDFC80EC98
:0103200022BA
:0E02BE000123010325000000012000012100A2
:10000E001203351200038F247590FFE524B4010E00
:10001E00C2B0E52370047F0180027F008F23E524A8
:10002E00B40211E5222401FFE433FE7C007D0312AD
:10003E0001548D22E5246403703274252522F8E6DE
:10004E00FF3395E0FEEF2401FFE43EFE7C007D0AC7
:10005E001201A974252522F8A605E52204FF7425B0
:10006E002522F8E6FD3395E0FC120350E5246404E6
:10007E00709174252522F8E6FF14C3648094805095
:10008E000974252522F87609801BEF3395E0FEEFE3
:10009E0024FFFFEE34FFFE7C007D0A1201A97425B9
:1000AE002522F8A605E52204FF74252522F8E6FD93
:0A00BE003395E0FC1203500200111C
:03000B000201DF10
:1001DF00C0E0C0F0C083C082C0D075D000C000C0E6
:0D01EF0001C002C003C004C005C006C00767
:1001FC00758CFC758A660520E520C3941440067541
:10020C0020001203210521E521C39402400AE523B5
:10021C0060067521001202DBE521C39402400DE556
:0C022C00237009F521E52204FF12028C6A
:10023800D007D006D005D004D003D002D001D0001A
:0B024800D0D0D082D083D0F0D0E032C4
:0E02CC000C143F065B4F666D7D077F6F004090
:09035000AE05740B2FF8A606227D
:0B025300740B2509F8E6FD7C00AF09E4
:10025E00E4F580EF24FE600C14600E2402700D7520
:10026E00A0FE800875A0FD800375A0FB74142DF808
:0E027E00E6F5807F017E0012030CE4F580227D
:1002DB00740B2508F8E6FD7C00AF0812025E0508DA
:0A02EB00E508C39404400375080100
:0102F50022E6
:0B034500740B2FF8E6FD7C0002025E46
:10028C00E5096F701DE50AC394645003120253E52F
:10029C000A2401FFE433FE7C007DC81201548D0A50
:1002AC0080031202530509E509C394044003750940
:0102BC000140
:0102BD00221E
:10033500438901758CFC758A66D28CD2A9D2AF220D
:05000300E4AF2AF52A1C
:0100080022D5
:1002F600E4FF2090010F2091027F022092027F03EB
:050306002093027F04BA
:01030B0022CF
:100321008528291202F68F28E5296007E528700340
:0303310085292AF1
:0103340022A6
:030000000200C833
:0C00C800787FE4F6D8FD75812A02010F54
:10015400BC000BBE0029EF8DF084FFADF022E4CC8F
:10016400F875F008EF2FFFEE33FEEC33FCEE9DEC58
:10017400984005FCEE9DFE0FD5F0E9E4CEFD22ED9E
:10018400F8F5F0EE8420D21CFEADF075F008EF2FE8
:10019400FFED33FD4007985006D5F0F222C398FDD9
:0501A4000FD5F0EA2276
:1001A900C2D5EC30E709B2D5E4C39DFDE49CFCEE71
:1001B90030E715B2D5E4C39FFFE49EFE120154C394
:1001C900E49DFDE49CFC800312015430D507C3E48F
:0601D9009FFFE49EFE22E0
:1000D40002000EE493A3F8E493A34003F68001F234
:1000E40008DFF48029E493A3F85407240CC8C3332D
:1000F400C4540F4420C8834004F456800146F6DFFC
:10010400E4800B01020408102040809002BEE47ECB
:10011400019360BCA3FF543F30E509541FFEE493F0
:10012400A360010ECF54C025E060A840B8E493A3B7
:10013400FAE493A3F8E493A3C8C582C8CAC583CAE2
:10014400F0A3C8C582C8CAC583CADFE9DEE780BE9A
:0102DA000023
:00000001FF
