:0D029900012501011E00011F0002200000D0
:10000E0012030F7590FF1200038F26E526B4010C24
:10001E00E52570047F0180027F008F25E52570168F
:10002E00E526B40211E5232401FFE433FE7C007DB6
:10003E00181201D78D23E5257016E526B40311E5B8
:10004E00242401FFE433FE7C007D3C1201D78D2475
:10005E00E5257016E526B40411E5222401FFE433EC
:10006E00FE7C007D3C1201D78D22E52275F00A84BC
:10007E00E5F0FD7C007F0612032AE52275F00A8466
:10008E00FD7C007F0512032AE52475F00A84E5F055
:10009E00FD7C007F0412032AE52475F00A84FD7CA2
:1000AE00007F0312032AE52375F00A84E5F0FD7C38
:1000BE00007F0212032AE52375F00A84FD7C007F7F
:0700CE000112032A020014D5
:10027200E52560220522E522C3943C4019E4F522DB
:100282000524E524943C400EE4F5240523E523945B
:07029200184003E4F52322EC
:03000B000201618E
:10016100C0E0C0F0C083C082C0D075D000C000C064
:0D01710001C002C003C004C005C006C007E5
:10017E00758CFC758A66051EE51EC39414400675C3
:10018E001E001202FB051FE51FC394024006751FD9
:10019E00001202B50521E52170020520C394E8E5A1
:0E01AE00209403400975200075210012027292
:1001BC00D007D006D005D004D003D002D001D00097
:0B01CC00D0D0D082D083D0F0D0E03241
:1002E600EF1FAC0670011E4C600A7D027CEFDCFE3F
:0402F600DDFC80ECBF
:0102FA0022E1
:05000300E4AF29F5291E
:0100080022D5
:1002D000E4FF2090010F2091027F022092027F0311
:0502E0002093027F04E1
:0102E50022F6
:1002FB008527281202D08F27E5286007E527700392
:03030B0085282919
:01030E0022CC
:0E02A6000C123F065B4F666D7D077F6F0040B8
:09032A00AE0574092FF8A60622A5
:10022C00E4F580EF24FE6015146017146019146057
:10023C001B14601D2405701C75A0FE801775A0FD95
:10024C00801275A0FB800D75A0F7800875A0EF805B
:10025C000375A0DF74122DF8E6F5807F017E001285
:06026C0002E6E4F5802229
:1002B50074092508F8E6FD7C00AF0812022C050834
:0A02C500E508C39407400375080123
:0102CF00220C
:0B031F0074092FF8E6FD7C0002022CA0
:10030F00438901758CFC758A66D28CD2A9D2AF2233
:030000000200D526
:0C00D500787FE4F6D8FD75812902011C3B
:1001D700BC000BBE0029EF8DF084FFADF022E4CC0C
:1001E700F875F008EF2FFFEE33FEEC33FCEE9DECD5
:1001F700984005FCEE9DFE0FD5F0E9E4CEFD22ED1B
:10020700F8F5F0EE8420D21CFEADF075F008EF2F64
:10021700FFED33FD4007985006D5F0F222C398FD55
:050227000FD5F0EA22F2
:1000E10002000EE493A3F8E493A34003F68001F227
:1000F10008DFF48029E493A3F85407240CC8C33320
:10010100C4540F4420C8834004F456800146F6DFEE
:10011100E4800B0102040810204080900299E47EE3
:10012100019360BCA3FF543F30E509541FFEE493E3
:10013100A360010ECF54C025E060A840B8E493A3AA
:10014100FAE493A3F8E493A3C8C582C8CAC583CAD5
:10015100F0A3C8C582C8CAC583CADFE9DEE780BE8D
:0102B4000049
:00000001FF
