:1004AB00EF1FAC0670011E4C600A7D027CEFDCFE78
:0404BB00DDFC80ECF8
:0104BF00221A
:05000300E4AF5BF55BBA
:0100080022D5
:10049500E4FF2090010F2091027F022092027F034A
:0504A5002093027F041A
:0104AA00222F
:1004C00085595A1204958F59E55A6007E55970030A
:0304D000855A5BEF
:0104D3002206
:10042000011700011505013303010900010A00024B
:030430000B0000BE
:10000E001204D475900F1200038F2AE52A64017032
:10001E0037E533700EE51770047F0180027F008F85
:10002E00178025E4F532742C2532F8E6FFE52B25F2
:10003E00322418F8A6070532E532B406E97406250F
:10004E002BF52B7514C81533E5177016E52AB40277
:10005E0011E5162401FFE433FE7C007D06120399A0
:10006E008D16E5177079E52A64037073E516640240
:10007E006005E516B4040E742C2516F8E6C3940537
:10008E00500306805AE51664036005E516B4050EA6
:10009E00742C2516F8E6C394095003068041E51624
:1000AE00700E742C2516F8E6C39402500306802FAA
:1000BE00E516B40113E52CB4020E742C2516F8E6E1
:1000CE00C394035003068017E516B40112E52C64A1
:1000DE0002600C742C2516F8E6C39409500106E54F
:1000EE00177059E52A64047053E51664026005E53D
:1000FE0016B4040E742C2516F8E6D394004003169D
:10010E00803AE51664036005E516B4050E742C25D9
:10011E0016F8E6D394004003168021E516700E748F
:10012E002C2516F8E6D39400400316800FE516B47E
:10013E00010A242CF8E6D39400400116E517603F1F
:10014E00E50EFD7C007F011204EFE50FFD7C007FC4
:10015E00021204EFE510FD7C007F031204EFE5119F
:10016E00FD7C007F041204EFE512FD7C007F05127A
:10017E0004EFE513FD7C007F061204EF020014E588
:10018E001604FF742C2516F8E6FD7C001204EF020F
:02019E0000144B
:10045000EFC3941240037F0022E4F532E5322F24EB
:1004600018F8E6FE740E2532F8E66E60037F00226F
:0A0470000532E532B406E57F0122F3
:1002C200E5176074AF08120450EF600DE50D700978
:1002D20085150D74062508F508E50D6006150DC295
:1002E200948002D2940513E513C3940A404A05127E
:1002F200E4F513E5129406403F0511E4F512E51109
:10030200940A40340510E4F511E5109406402905DD
:100312000FE4F510E50E9402500DE50FC3940A4068
:1003220006050EE4F50F22E50EB4020CE50FC394A8
:08033200044005E4F50EF50F8F
:01033A0022A0
:03000B000201A04F
:1001A000C0E0C0F0C083C082C0D075D000C000C025
:0D01B00001C002C003C004C005C006C007A6
:1001BD00758CFC758A660509E509C39414400675AE
:1001CD0009001204C0050AE50AC39402400AE517A6
:1001DD006006750A0012047AE50AC394024015E51B
:1001ED00177011F50AE514600415148007E516045F
:1001FD00FF1203EE050CE50C7002050BC394E8E548
:0E020D000B94034009750B00750C001202C221
:10021B00D007D006D005D004D003D002D001D00037
:0B022B00D0D0D082D083D0F0D0E032E1
:1004D400438901758CFC758A66D28CD2A9D2AF226D
:100433000C4C3F065B4F666D7D077F6F00400C40A1
:0C044300BF86DBCFE6EDFD87FFEF80C039
:0904EF00AE0574372FF8A60622B1
:0B033B0074372535F8E6FD7C00AF3577
:10034600E4F580F558EF24FE601514601714601963
:1003560014601E1460202405701F75A0FE801A7597
:10036600A0FD800875A0FB801075A0F77558018068
:100376000875A0EF800375A0DFE55860047440801F
:1003860002744C2DF8E6F5807F017E001204ABE482
:03039600F58022CD
:10047A0074372534F8E6FD7C00AF341203460534A0
:0A048A00E534C39407400375340104
:010494002245
:0B04E40074372FF8E6FD7C0002034691
:1003EE00E5356F701DE536C39464500312033BE58B
:1003FE00362401FFE433FE7C007DC81203998D364E
:10040E00800312033B0535E535C39407400375356C
:01041E0001DC
:01041F0022BA
:03000000020236C3
:0C023600787FE4F6D8FD75815B02027D44
:10039900BC000BBE0029EF8DF084FFADF022E4CC48
:1003A900F875F008EF2FFFEE33FEEC33FCEE9DEC11
:1003B900984005FCEE9DFE0FD5F0E9E4CEFD22ED57
:1003C900F8F5F0EE8420D21CFEADF075F008EF2FA1
:1003D900FFED33FD4007985006D5F0F222C398FD92
:0503E9000FD5F0EA222F
:1002420002000EE493A3F8E493A34003F68001F2C4
:1002520008DFF48029E493A3F85407240CC8C333BD
:10026200C4540F4420C8834004F456800146F6DF8C
:10027200E4800B0102040810204080900420E47EF8
:10028200019360BCA3FF543F30E509541FFEE49381
:10029200A360010ECF54C025E060A840B8E493A348
:1002A200FAE493A3F8E493A3C8C582C8CAC583CA73
:1002B200F0A3C8C582C8CAC583CADFE9DEE780BE2B
:01044F0000AC
:00000001FF
